RC0000009001892350NOMI00000000256000666956CA000051000000002637240000000013201604271404200000000000000000000000000100000000000000000000000000000000000000000000000000000000
TR000000000516665400000000000000000000000026226894CA0000130000000001446000006177510210000TRANSACCION EXITOSA - PROCESADA         00000000000000000000000000000000000000000
TR000000005607713500000000000000000000000548132430CA0000010000000001166000006177520210000TRANSACCION EXITOSA - PROCESADA         00000000000000000000000000000000000000000
TR000000007200039900000000000000000000000151397007CA0000010000000001290000006177530210000TRANSACCION EXITOSA - PROCESADA         00000000000000000000000000000000000000000
TR000000112240052800000000000000000000000026226837CA0000130000000001290000006177540210000TRANSACCION EXITOSA - PROCESADA         00000000000000000000000000000000000000000
TR000000112240295400000000000000000000256700029208CA0000510000000001446000006177550210000TRANSACCION EXITOSA - PROCESADA         00000000000000000000000000000000000000000
TR000000112240867300000000000000000000019732502494CA0000070000000001166000006177560210000TRANSACCION EXITOSA - PROCESADA         00000000000000000000000000000000000000000
TR000000112400688600000000000000000000000026226852CA0000130000000001166000006177570210000TRANSACCION EXITOSA - PROCESADA         00000000000000000000000000000000000000000
TR000000109863212100000000000000000000236800003824CA0000510000000002841000006177580210000TRANSACCION EXITOSA - PROCESADA         00000000000000000000000000000000000000000
TR000000112670405100000000000000000000079585422580CA0000070000000002841000006177590210000TRANSACCION EXITOSA - PROCESADA         00000000000000000000000000000000000000000
TR000000001790298700000000000000000000052630515807CA0000070000000002841000006177600210000TRANSACCION EXITOSA - PROCESADA         00000000000000000000000000000000000000000
TR000000007718211900000000000000000000257170020990CA0000510000000005238400006177610210000TRANSACCION EXITOSA - PROCESADA         00000000000000000000000000000000000000000
TR000000103239599700000000000000000000009325206991CA0000070000000002841000006177620210000TRANSACCION EXITOSA - PROCESADA         00000000000000000000000000000000000000000
TR000000112240253100000000000000000000000200271643CA0000130000000000800000006177630210004Cuenta Invalida                         00000000000000000000000000000000000000000
